{
  "_format": "hh-sol-artifact-1",
  "contractName": "CertificateRegistry",
  "sourceName": "contracts/CertificateRegistry.sol",
  "abi": [
    {
      "inputs": [],
      "stateMutability": "nonpayable",
      "type": "constructor"
    },
    {
      "anonymous": false,
      "inputs": [
        {
          "indexed": true,
          "internalType": "string",
          "name": "certificateId",
          "type": "string"
        },
        {
          "indexed": false,
          "internalType": "bytes32",
          "name": "certHash",
          "type": "bytes32"
        },
        {
          "indexed": false,
          "internalType": "uint256",
          "name": "issuedAt",
          "type": "uint256"
        }
      ],
      "name": "CertificateIssued",
      "type": "event"
    },
    {
      "anonymous": false,
      "inputs": [
        {
          "indexed": true,
          "internalType": "string",
          "name": "certificateId",
          "type": "string"
        },
        {
          "indexed": false,
          "internalType": "uint256",
          "name": "revokedAt",
          "type": "uint256"
        }
      ],
      "name": "CertificateRevoked",
      "type": "event"
    },
    {
      "inputs": [],
      "name": "certCount",
      "outputs": [
        {
          "internalType": "uint256",
          "name": "",
          "type": "uint256"
        }
      ],
      "stateMutability": "view",
      "type": "function"
    },
    {
      "inputs": [
        {
          "internalType": "string",
          "name": "certificateId",
          "type": "string"
        },
        {
          "internalType": "string",
          "name": "studentName",
          "type": "string"
        },
        {
          "internalType": "string",
          "name": "degree",
          "type": "string"
        },
        {
          "internalType": "string",
          "name": "course",
          "type": "string"
        },
        {
          "internalType": "string",
          "name": "department",
          "type": "string"
        },
        {
          "internalType": "string",
          "name": "university",
          "type": "string"
        },
        {
          "internalType": "string",
          "name": "graduationDate",
          "type": "string"
        },
        {
          "internalType": "string",
          "name": "classOfHonours",
          "type": "string"
        }
      ],
      "name": "issueCertificate",
      "outputs": [],
      "stateMutability": "nonpayable",
      "type": "function"
    },
    {
      "inputs": [],
      "name": "owner",
      "outputs": [
        {
          "internalType": "address",
          "name": "",
          "type": "address"
        }
      ],
      "stateMutability": "view",
      "type": "function"
    },
    {
      "inputs": [
        {
          "internalType": "string",
          "name": "certificateId",
          "type": "string"
        }
      ],
      "name": "revokeCertificate",
      "outputs": [],
      "stateMutability": "nonpayable",
      "type": "function"
    },
    {
      "inputs": [
        {
          "internalType": "string",
          "name": "certificateId",
          "type": "string"
        }
      ],
      "name": "verifyCertificate",
      "outputs": [
        {
          "internalType": "bool",
          "name": "isValid",
          "type": "bool"
        },
        {
          "components": [
            {
              "internalType": "string",
              "name": "studentName",
              "type": "string"
            },
            {
              "internalType": "string",
              "name": "degree",
              "type": "string"
            },
            {
              "internalType": "string",
              "name": "course",
              "type": "string"
            },
            {
              "internalType": "string",
              "name": "department",
              "type": "string"
            },
            {
              "internalType": "string",
              "name": "university",
              "type": "string"
            },
            {
              "internalType": "string",
              "name": "graduationDate",
              "type": "string"
            },
            {
              "internalType": "string",
              "name": "classOfHonours",
              "type": "string"
            },
            {
              "internalType": "bytes32",
              "name": "certHash",
              "type": "bytes32"
            },
            {
              "internalType": "uint256",
              "name": "issuedAt",
              "type": "uint256"
            },
            {
              "internalType": "bool",
              "name": "exists",
              "type": "bool"
            },
            {
              "internalType": "bool",
              "name": "revoked",
              "type": "bool"
            },
            {
              "internalType": "uint256",
              "name": "revokedAt",
              "type": "uint256"
            }
          ],
          "internalType": "struct CertificateRegistry.Certificate",
          "name": "cert",
          "type": "tuple"
        }
      ],
      "stateMutability": "view",
      "type": "function"
    }
  ],
  "bytecode": "0x60808060405234602757600180546001600160a01b031916331790556111fa908161002d8239f35b600080fdfe610200604052600436101561001357600080fd5b60003560e01c8063142e154214610e485780638007e6a3146103245780638b23d875146100a05780638da5cb5b146100775763d4e207a21461005457600080fd5b34610072576000366003190112610072576020600254604051908152f35b600080fd5b34610072576000366003190112610072576001546040516001600160a01b039091168152602090f35b34610072576020366003190112610072576004356001600160401b038111610072576100d0903690600401610fdb565b906040516100dd816110a9565b60608152602081016060905260408101606090526060810160609052608081016060905260a081016060905260c081016060905260e081016000905261010081016000905261012081016000905261014081016000905261016001600090528160405192839283378101600081520360200190206040519061015e826110a9565b61016781611120565b825261017560018201611120565b602083019081528261018960028401611120565b6040820190815261019c60038501611120565b60608301908152926101b060048601611120565b60808401908152936101c460058701611120565b60a085019081526101d760068801611120565b9060c0860191825260078801549660e08701978852600889015493610100880194855260098a01549661012089019660ff891615159b8c89526101408b019960081c60ff16159081158b52600a01549a610160019a8b528c61031c575b506040519c8d9c15158d5260208d01604090525160408d0161018090526101c08d0161025f91611008565b90518c8203603f190160608e01526102779190611008565b90518b8203603f190160808d015261028f9190611008565b90518a8203603f190160a08c01526102a79190611008565b9051898203603f190160c08b01526102bf9190611008565b9051888203603f190160e08a01526102d79190611008565b9051878203603f19016101008901526102f09190611008565b945161012087015251610140860152511515610160850152511515610180840152516101a08301520390f35b9b508d610234565b3461007257610100366003190112610072576004356001600160401b03811161007257610355903690600401610fdb565b6101c0526101e0526024356001600160401b0381116100725761037c903690600401610fdb565b906044356001600160401b0381116100725761039c903690600401610fdb565b906064356001600160401b038111610072576103bc903690600401610fdb565b9290946084356001600160401b038111610072576103de903690600401610fdb565b60c05260a05260a4356001600160401b03811161007257610403903690600401610fdb565b610120526101005260c4356001600160401b0381116100725761042a903690600401610fdb565b610160526101405260e4356001600160401b03811161007257610451903690600401610fdb565b6101a0526101805261046e60018060a01b03600154163314611049565b60ff60096040516101c0516101e05182376020816101c05181016000815203019020015416610e035760405160e0526101c0516101e051602060e051013761053d84836020846101c05160e05101818b848301600081523701016000815281878237016000815281898237016000815260c05160a051823760c051016000815261012051610100518237610120510160008152610160516101405182376101605101600081526101a0516101805182376101a051016000815260e0519003601f19810160e0515260e0516110c5565b60e05151602060e0510120946040516101c0516101e05182376020816101c051810160008152030190206080526001600160401b03821161094b578190610586608051546110e6565b601f8111610db1575b50600090601f8311600114610d4757600092610d3c575b50508160011b916000199060031b1c191617608051555b600160805101916001600160401b03821161094b5781906105de84546110e6565b601f8111610ce9575b50600090601f8311600114610c8357600092610c78575b50508160011b916000199060031b1c19161790555b600260805101906001600160401b03811161094b5761063282546110e6565b601f8111610c30575b506000601f8211600114610bcd5781929394600092610bc2575b50508160011b916000199060031b1c19161790555b6003608051016001600160401b0360c0511161094b5761068a81546110e6565b601f8111610b76575b506000601f60c05111600114610b0a5760009060c051610afd575b5060c05160011b9060001960c05160031b1c19161790555b6004608051016001600160401b03610120511161094b576106e781546110e6565b601f8111610aaf575b506000601f6101205111600114610a3d5760009061012051610a2f575b506101205160011b906000196101205160031b1c19161790555b6005608051016001600160401b03610160511161094b5761074881546110e6565b601f81116109e1575b506000601f610160511160011461096f5760009061016051610961575b506101605160011b906000196101605160031b1c19161790555b6006608051016001600160401b036101a0511161094b576107a981546110e6565b601f81116108fd575b506000601f6101a0511160011461088b576000906101a05161087d575b506101a05160011b906000196101a05160031b1c19161790555b80600760805101554260086080510155600960805101600160ff1982541617905560025460018101809111610867576002557fd0348b56773e2bcc2cb96d93abfeda0863b8c7f6460d0b234827b9e2a9ed926c604080516101c0516101e0518237806101c051810160008152039020928151908152426020820152a2005b634e487b7160e01b600052601160045260246000fd5b9050610180510135836107cf565b6101a051828252602082209190601f1916815b8181106108e257506101a051116108c2575b505060016101a051811b0190556107e9565b60001960f86101a05160031b161c199061018051013516905582806108b0565b9192602060018192866101805101358155019401920161089e565b816000526020600020601f6101a0510160051c81019160206101a05110610941575b601f0160051c01905b81811061093557506107b2565b60008155600101610928565b909150819061091f565b634e487b7160e01b600052604160045260246000fd5b90506101405101358361076e565b61016051828252602082209190601f1916815b8181106109c6575061016051116109a6575b5050600161016051811b019055610788565b60001960f86101605160031b161c19906101405101351690558280610994565b91926020600181928661014051013581550194019201610982565b816000526020600020601f610160510160051c81019160206101605110610a25575b601f0160051c01905b818110610a195750610751565b60008155600101610a0c565b9091508190610a03565b90506101005101358361070d565b61012051828252602082209190601f1916815b818110610a9457506101205111610a74575b5050600161012051811b019055610727565b60001960f86101205160031b161c19906101005101351690558280610a62565b91926020600181928661010051013581550194019201610a50565b816000526020600020601f610120510160051c81019160206101205110610af3575b601f0160051c01905b818110610ae757506106f0565b60008155600101610ada565b9091508190610ad1565b905060a0510135836106ae565b60c051828252602082209190601f1916815b818110610b5c575060c05111610b3e575b5050600160c051811b0190556106c6565b60001960f860c05160031b161c199060a05101351690558280610b2d565b91926020600181928660a051013581550194019201610b1c565b816000526020600020601f60c0510160051c810191602060c05110610bb8575b601f0160051c01905b818110610bac5750610693565b60008155600101610b9f565b9091508190610b96565b013590508480610655565b601f198216948382526020822091805b878110610c18575083600195969710610bfe575b505050811b01905561066a565b0135600019600384901b60f8161c19169055848080610bf1565b90926020600181928686013581550194019101610bdd565b826000526020600020601f830160051c81019160208410610c6e575b601f0160051c01905b818110610c62575061063b565b60008155600101610c55565b9091508190610c4c565b0135905086806105fe565b84825260208220925090601f198416815b818110610cd15750908460019594939210610cb7575b505050811b019055610613565b0135600019600384901b60f8161c19169055868080610caa565b91936020600181928787013581550195019201610c94565b909150836000526020600020601f840160051c81019160208510610d32575b90601f859493920160051c01905b818110610d2357506105e7565b60008155849350600101610d16565b9091508190610d08565b0135905087806105a6565b608051825260208220925090601f198416815b818110610d995750908460019594939210610d7f575b505050811b01608051556105bd565b0135600019600384901b60f8161c19169055878080610d70565b91936020600181928787013581550195019201610d5a565b9091506080516000526020600020601f840160051c810160208510610dfc575b90849392915b601f830160051c82018110610ded57505061058f565b60008155859450600101610dd7565b5080610dd1565b60405162461bcd60e51b815260206004820152601d60248201527f436572746966696361746520494420616c7265616479206578697374730000006044820152606490fd5b34610072576020366003190112610072576004356001600160401b03811161007257610e78903690600401610fdb565b90610e8e60018060a01b03600154163314611049565b60ff600960405184848237602081868101600081520301902001541615610f965760ff6009604051848482376020818681016000815203019020015460081c16610f515760096040518383823760208185810160008152030190200161010061ff001982541617905560405182828237600a838201916000835260208142940301902001558160405192839283378101600081520390207f57bf3aad622f3cf905e8c86d1e40e1de99f3ea3a1c14decf97a8671c24fbe5576020604051428152a2005b60405162461bcd60e51b815260206004820152601b60248201527f436572746966696361746520616c7265616479207265766f6b656400000000006044820152606490fd5b60405162461bcd60e51b815260206004820152601a60248201527f436572746966696361746520646f6573206e6f742065786973740000000000006044820152606490fd5b9181601f84011215610072578235916001600160401b038311610072576020838186019501011161007257565b919082519283825260005b848110611034575050826000602080949584010152601f8019910116010190565b80602080928401015182828601015201611013565b1561105057565b60405162461bcd60e51b815260206004820152602b60248201527f4f6e6c792074686520756e69766572736974792063616e20706572666f726d2060448201526a3a3434b99030b1ba34b7b760a91b6064820152608490fd5b61018081019081106001600160401b0382111761094b57604052565b90601f801991011681019081106001600160401b0382111761094b57604052565b90600182811c92168015611116575b602083101461110057565b634e487b7160e01b600052602260045260246000fd5b91607f16916110f5565b9060405191826000825492611134846110e6565b80845293600181169081156111a2575060011461115b575b50611159925003836110c5565b565b90506000929192526020600020906000915b818310611186575050906020611159928201013861114c565b602091935080600191548385890101520191019091849261116d565b90506020925061115994915060ff191682840152151560051b8201013861114c56fea2646970667358221220acfbe972e00deac97dc151849721b1a63a38ca7e290d587959d5a247aaefa29064736f6c634300081c0033",
  "linkReferences": {},
  "deployedLinkReferences": {}
}